:0400000007EF00F016
:0A0008006882CEED07F0A1EF08F0CA
:10060000004552524F523A554E4B4E4F574E5F4354
:100610004D443A00434F4E4E5F41434B0D0A00524A
:10062000433A253032580D0A0053484F575F303057
:10063000300053484F575F3030310053484F575FB9
:100640003030320053484F575F3030330053484FFB
:10065000575F3030340053484F575F3030350053C8
:100660004554305F52433500534554315F52433552
:100670000053484F575F30303600524541445F5079
:0D068000494E00434F4E4E5F524551000061
:10068E00010E056EF40E046E8AEC08F0D2EC08F042
:10069E00C3EC08F0000E68EC07F0FF0EB4EC08F0A7
:1006AE004950D8B45DEF03F05FEF03F057EF03F05E
:1006BE00496A5E0E096E830E0A6E92EC06F0000910
:1006CE00D8B46CEF03F06EEF03F078EF03F0140E76
:1006DE00056E0550D8A4060E066E9FEC07F061EF6E
:1006EE0004F05E0E096E320E0A6E92EC06F00009F0
:1006FE00D8B484EF03F086EF03F08BEF03F0010E16
:10070E0068EC07F061EF04F05E0E096E3B0E0A6EA8
:10071E0092EC06F00009D8B497EF03F099EF03F0CE
:10072E009EEF03F0020E68EC07F061EF04F05E0E30
:10073E00096E440E0A6E92EC06F00009D8B4AAEFC8
:10074E0003F0ACEF03F0B1EF03F0030E68EC07F02B
:10075E0061EF04F05E0E096E4D0E0A6E92EC06F01D
:10076E000009D8B4BDEF03F0BFEF03F0C4EF03F000
:10077E00040E68EC07F061EF04F05E0E096E560E83
:10078E000A6E92EC06F00009D8B4D0EF03F0D2EF67
:10079E0003F0D7EF03F0050E68EC07F061EF04F0FD
:1007AE005E0E096E710E0A6E92EC06F00009D8B458
:1007BE00E3EF03F0E5EF03F0EAEF03F0060E68EC6B
:1007CE0007F061EF04F05E0E096E290E0A6E92ECD0
:1007DE0006F00009D8B4F6EF03F0F8EF03F0FDEFE2
:1007EE0003F0000E68EC07F061EF04F05E0E096E88
:1007FE007A0E0A6E92EC06F00009D8B409EF04F0F6
:10080E000BEF04F01EEF04F0DCEC06F0416E4A0E26
:10081E00316E1F0E326E41C033F0346A70EC08F048
:10082E004A0E056E066A9FEC07F061EF04F05E0E4D
:10083E00096E680E0A6E92EC06F00009D8B42AEF23
:10084E0004F02CEF04F02FEF04F08B8A61EF04F02C
:10085E005E0E096E5F0E0A6E92EC06F00009D8B4B9
:10086E003BEF04F03DEF04F040EF04F08B9A61EFA4
:10087E0004F0010E056E0550D8A4060E066E9FEC10
:10088E0007F0426A42505E0FD96EDA6ADF50E1EC31
:10089E0008F0422A090E426457EF04F059EF04F0B3
:1008AE0049EF04F01C0E056E0550D8A4060E066E18
:1008BE009FEC07F0486A57EF03F007EF00F0255062
:1008CE00D96EDA6ADFCFF6FF060EF76E0800F55026
:1008DE00250AD8A475EF04F077EF04F000EF05F0C9
:1008EE002550D96EDA6ADF2A000E446E000E436E72
:1008FE0043C047F0456846682B6AA0EF04F0478274
:10090E002550D96EDA6ADF2AA0EF04F0010E2B6EA5
:10091E00A0EF04F02550D96EDA6ADFCFF6FF060E8F
:10092E00F76E0800F550300AD8B486EF04F08DEF5C
:10093E0004F02B50D8B4A6EF04F0A8EF04F091EF1A
:10094E0004F025C004F026C005F040EC06F004C00B
:10095E0043F005C044F044BEB9EF04F0B7EF04F025
:10096E00BEEF04F04780436C441ED8B0442A255095
:10097E00D96EDA6ADF502C6E2CC0F6FF060EF76EBB
:10098E000800F550580AD8A4CFEF04F0D1EF04F0C8
:10099E00FAEF04F02650D96EDA6A020EDF26DF5C1B
:1009AE00D96EDA6ADECF27F0DECF28F02550D96E69
:1009BE00DA6A2C28DF6EEEEF04F024C018F027C0A0
:1009CE0019F028C01AF012EC05F011EF05F02CC04A
:1009DE00F6FF060EF76E0800F550580AD8B4E4EF8D
:1009EE0004F0FAEF04F02550D96EDA6ADF2A11EF1F
:1009FE0005F02550D96EDA6ADFCFF6FF060EF76ED8
:100A0E000800F550046E056A24C006F0EBEC05F004
:100A1E00FAEF04F01200010E1E6E43C01FF044C028
:100A2E0020F0000E236E1F0E226E00019F6B4EEF04
:100A3E0005F02206D8A0230619500F0B216E0A0EC0
:100A4E0021602CEF05F02EEF05F032EF05F0300EA1
:100A5E00212634EF05F0370E21262250800FD96E55
:100A6E00DA6A21C0DFFF1E6A1F06D8A0200619C051
:100A7E001BF01AC01CF0040E1D6ED8901C321B32D7
:100A8E001D2E44EF05F01BC019F01CC01AF023BE3A
:100A9E005AEF05F0235009E1020E225CD8A05AEF5E
:100AAE0005F05CEF05F081EF05F019501A10D8A48F
:100ABE0063EF05F065EF05F020EF05F01E50D8A4AA
:100ACE006BEF05F06DEF05F020EF05F020BE78EF2F
:100ADE0005F0205008E11F04D8A078EF05F07AEF5A
:100AEE0005F081EF05F047B27FEF05F081EF05F0DD
:100AFE0020EF05F018C011F02250800F126E1FC0AB
:100B0E0013F020C014F023EC07F012000606D8A054
:100B1E000706062806E10728D8A498EF05F09AEFF5
:100B2E0005F0A5EF05F0000E056E000E046EEAEF5F
:100B3E0005F0042A052A0606D8A007060450D96E29
:100B4E00DA6ADF50D8B4AEEF05F0B0EF05F0DAEFA9
:100B5E0005F005C0F6FF060EF76E0800F550000909
:100B6E00D8B4BCEF05F0BEEF05F0DAEF05F0065095
:100B7E000710D8B4C5EF05F0C7EF05F0DAEF05F0B2
:100B8E000450D96EDA6ADF50086E05C0F6FF060E05
:100B9E00F76E0800F5500818D8B4D8EF05F0DAEF64
:100BAE0005F0A0EF05F00450D96EDA6ADF50086E3A
:100BBE0005C0F6FF060EF76E0800F550085C046ED1
:100BCE00056AD8A0050612000650D8B4F1EF05F05C
:100BDE00F3EF05F0FBEF05F00650D8A4F9EF05F0A2
:100BEE00FBEF05F000EF06F00450F2EC08F03FEFDB
:100BFE0006F00650D96EDA6A090ED926DE50DE10DE
:100C0E00D8B40CEF06F00EEF06F027EF06F0065004
:100C1E00D96EDA6A090ED9260650E16EE26A020E24
:100C2E00E126DE50E65CE650800A0B6EDE50800A4E
:100C3E000B58D8B025EF06F027EF06F03FEF06F081
:100C4E000650D96EDA6A020ED926DF50076E0650AC
:100C5E00D96EDA6ADF500724D96EDA6A04C0DFFF74
:100C6E000650D96EDA6A020ED926DE2A000EDD2271
:100C7E001200000E0A6E000E096E0450D96EDA6A6A
:100C8E00DFCFF6FF060EF76E0800F5502A0AD8A43D
:100C9E0053EF06F055EF06F07AEF06F00450D96EDA
:100CAE00DA6ADF2A0550D96EDA6A020EDF26DF5CB9
:100CBE00D96EDA6ADECF09F0DECF0AF08DEF06F0DC
:100CCE000A0E0902F3CF06F0F4CF07F00A02F35032
:100CDE00072608500624096E000E07200A6E0450DF
:100CEE00D96EDA6ADF2A0450D96EDA6ADFCFF6FFE0
:100CFE00060EF76E0800F550D00F086E090E086448
:100D0E008BEF06F08DEF06F067EF06F009C004F0EA
:100D1E000AC005F012000A50D8B498EF06F09AEF08
:100D2E0006F0DAEF06F00AC004F056EC08F004C044
:100D3E000BF005C00CF0C7EF06F009C004F00AC0B6
:100D4E0005F00BC006F00CC007F08DEC05F004505A
:100D5E000510D8A4B5EF06F0B7EF06F0BAEF06F01F
:100D6E000950DBEF06F00928046E0AC0F6FF060EE6
:100D7E00F76E0800F550056E066A39EC08F0096E3C
:100D8E000950D8B4CDEF06F0CFEF06F0DAEF06F04B
:100D9E000950D96EDA6ADF50D8A4D8EF06F0DAEF30
:100DAE0006F0A4EF06F0000E1200056A82B0E2EF24
:100DBE0006F0E5EF06F0010EE6EF06F0000E051266
:100DCE0082B2ECEF06F0F0EF06F0046A042AF1EFBF
:100DDE0006F0046AD8900434051282B4F9EF06F0D6
:100DEE00FDEF06F0046A042AFEEF06F0046AD890BE
:100DFE000436D8900434051282B608EF07F00CEFD3
:100E0E0007F0046A042A0DEF07F0046AD89004363E
:100E1E00D8900436D8900434051282B819EF07F032
:100E2E001DEF07F0046A042A1EEF07F0046A043867
:100E3E00F00B05120550120047A028EF07F02AEF1D
:100E4E0007F030EF07F012C00CF011C00DF01BECE4
:100E5E0008F014BE37EF07F035EF07F03BEF07F061
:100E6E00000E146E000E136E000E176E000E166E30
:100E7E004BEF07F0000E056E200E046E11C006F04B
:100E8E00EBEC05F0164A172A1350165C1750800A21
:100E9E00156E1450800A1558D8A058EF07F05AEF67
:100EAE0007F041EF07F047B05FEF07F061EF07F093
:100EBE0067EF07F012C00CF011C00DF01BEC08F03C
:100ECE001200046E8990899289948996899A8D90E0
:100EDE0083EF07F089809EEF07F089829EEF07F07F
:100EEE0089849EEF07F089869EEF07F08D809EEF36
:100EFE0007F0898A9EEF07F00450010AD8B480EFFC
:100F0E0007F0030AD8B47DEF07F0010AD8B47AEFE0
:100F1E0007F0070AD8B477EF07F0010AD8B474EFD8
:100F2E0007F0030AD8B471EF07F09EEF07F0120036
:100F3E00B5EF07F005C0F6FF06C0F7FFF86A050E1D
:100F4E00F76403D00800F55005D0F6CFE1FFF7CFD8
:100F5E00E2FFE750E1EC08F0054A062A05C0F6FF6D
:100F6E0006C0F7FFF86A050EF76403D00800F550C7
:100F7E0005D0F6CFE1FFF7CFE2FFE7500009D8A486
:100F8E00CBEF07F0CDEF07F0A1EF07F01200060050
:100F9E00D9CF01F0DACF02F09EAAD8EF07F0DAEF40
:100FAE0007F0F6EF07F0AECF03F04950D8A4E2EF0A
:100FBE0007F0E4EF07F0F6EF07F048505E0FD96E3A
:100FCE00DA6A03C0DFFF482A090E4864F1EF07F022
:100FDE00F3EF07F0F6EF07F0010E496E486A02C014
:100FEE00DAFF01C0D9FF689211002EC030F008EF71
:100FFE0008F02DC024F0300E256E2FC026F066ECC2
:10100E0004F030C0F6FF060EF76E0800F55000092A
:10101E00D8A414EF08F016EF08F000EF08F0000E59
:10102E002E6E000E2D6E1200000E106E000E0F6E44
:10103E002AEF08F00EC004F0056A0DC006F0EBECC6
:10104E0005F00F4A102A0C500F24D96EDA6ADF50C1
:10105E000E6E0E50D8A436EF08F038EF08F021EFE0
:10106E0008F012000450D96EDA6A0550DE18D8A4C2
:10107E0043EF08F045EF08F048EF08F0045055EF45
:10108E0008F0042A0404D96EDA6ADF50D8A452EFAD
:10109E0008F054EF08F039EF08F0000E120004C00B
:1010AE0006F05BEF08F0042A04C0F6FF060EF76E9A
:1010BE000800F5500009D8A467EF08F069EF08F0B2
:1010CE005AEF08F00650045C046E056A04BE05066D
:1010DE001200330E356E31C036F0000E396E000E32
:1010EE00386E000E406E000E3F6E360E2D6E32C004
:1010FE002EF0350E2F6EFCEC07F031503824D96EE1
:10110E00DA6ADF6A120093EF08F0040E066E3E0EE6
:10111E00E82EFED7062EFCD70406D8A00506042816
:10112E0006E10528D8A49EEF08F0A0EF08F08CEF9A
:10113E0008F0120000EE80F0200EEE6AE806FDE1E7
:10114E0000EE43F0250EEE6AE806FDE16890689227
:10115E00000EF86E000147EF03F0046E04C08CFF22
:10116E008A92080EE82EFED700008A82080EE82E1C
:10117E00FED700008A9212009392929092929294CD
:10118E009296929A96908A92949A8B9A93908A902B
:10119E00ECEC08F01200949C948E0F0EAF6EAC9493
:1011AE00B896AC98AB8EAC8AAB889E9A9D8AF28C20
:1011BE00F28E1200046E9EA8E7EF08F0E9EF08F039
:1011CE00E2EF08F004C0ADFF120094809482948484
:0811DE009486948812001200AF
:020000040030CA
:08000000FF02191EFF8381FFBE
:00000001FF
