:0400000007EF00F016
:0A0008002D82C1ED04F075EF05F044
:1006000000434F4E4E5F41434B0D0A0053484F5736
:100610005F3030300053484F575F3030310053481F
:100620004F575F3030320053484F575F3030330000
:1006300053484F575F3030340053484F575F303086
:10064000350053484F575F30303600434F4E4E5FB2
:050650005245510000BD
:10065600010E256EF40E246E40EC05F066EC05F0F6
:100666008DEC05F0000E8AEC04F0FF0E57EC05F059
:100676001650D8B441EF03F043EF03F03BEF03F01D
:10068600166A170E296E4B0E2A6E40EC04F000090E
:10069600D8B450EF03F052EF03F058EF03F0010E19
:1006A600256E26EC05F0DDEF03F0170E296E150E0C
:1006B6002A6E40EC04F00009D8B464EF03F066EF4C
:1006C60003F06BEF03F0010E8AEC04F0DDEF03F0AC
:1006D600170E296E1E0E2A6E40EC04F00009D8B4DF
:1006E60077EF03F079EF03F07EEF03F0020E8AEC6A
:1006F60004F0DDEF03F0170E296E270E2A6E40EC8C
:1007060004F00009D8B48AEF03F08CEF03F091EF00
:1007160003F0030E8AEC04F0DDEF03F0170E296EEA
:10072600300E2A6E40EC04F00009D8B49DEF03F0B9
:100736009FEF03F0A4EF03F0040E8AEC04F0DDEF64
:1007460003F0170E296E390E2A6E40EC04F00009EC
:10075600D8B4B0EF03F0B2EF03F0B7EF03F0050E35
:100766008AEC04F0DDEF03F0170E296E420E2A6EB6
:1007760040EC04F00009D8B4C3EF03F0C5EF03F072
:10078600CAEF03F0060E8AEC04F0DDEF03F0170E55
:10079600296E0C0E2A6E40EC04F00009D8B4D6EF90
:1007A60003F0D8EF03F0DDEF03F0000E8AEC04F05F
:1007B600DDEF03F0156A3BEF03F007EF00F02606C6
:1007C600D8A02706262806E12728D8A4EDEF03F0AF
:1007D600EFEF03F0FAEF03F0000E256E000E246E25
:1007E6003FEF04F0242A252A2606D8A027062450FF
:1007F600D96EDA6ADF50D8B403EF04F005EF04F0DF
:100806002FEF04F025C0F6FF060EF76E0800F55030
:100816000009D8B411EF04F013EF04F02FEF04F041
:1008260026502710D8B41AEF04F01CEF04F02FEF6F
:1008360004F02450D96EDA6ADF50286E25C0F6FF20
:10084600060EF76E0800F5502818D8B42DEF04F000
:100856002FEF04F0F5EF03F02450D96EDA6ADF507B
:10086600286E25C0F6FF060EF76E0800F550285CC8
:10087600246E256AD8A0250612002A50D8B446EF61
:1008860004F048EF04F088EF04F02AC024F00CECE2
:1008960005F024C02BF025C02CF075EF04F029C01C
:1008A60024F02AC025F02BC026F02CC027F0E2EC5D
:1008B60003F024502510D8A463EF04F065EF04F08C
:1008C60068EF04F0295089EF04F02928246E2AC025
:1008D600F6FF060EF76E0800F550256E266AEFEC59
:1008E60004F0296E2950D8B47BEF04F07DEF04F0B4
:1008F60088EF04F02950D96EDA6ADF50D8A486EF63
:1009060004F088EF04F052EF04F0000E1200246E9B
:100916008990899289948996899A8D90A5EF04F099
:100926008980C0EF04F08982C0EF04F08984C0EFAB
:1009360004F08986C0EF04F08D80C0EF04F0898A48
:10094600C0EF04F02450010AD8B4A2EF04F0030A61
:10095600D8B49FEF04F0010AD8B49CEF04F0070A5C
:10096600D8B499EF04F0010AD8B496EF04F0030A5C
:10097600D8B493EF04F0C0EF04F012000600D9CF0C
:1009860021F0DACF22F09EAACBEF04F0CDEF04F0EF
:10099600E9EF04F0AECF23F01650D8A4D5EF04F05B
:1009A600D7EF04F0E9EF04F01550170FD96EDA6AA5
:1009B60023C0DFFF152A090E1564E4EF04F0E6EF05
:1009C60004F0E9EF04F0010E166E156A22C0DAFF94
:1009D60021C0D9FF2D9211002450D96EDA6A255014
:1009E600DE18D8A4F9EF04F0FBEF04F0FEEF04F0F4
:1009F60024500BEF05F0242A2404D96EDA6ADF505E
:100A0600D8A408EF05F00AEF05F0EFEF04F0000EAA
:100A1600120024C026F011EF05F0242A24C0F6FFA8
:100A2600060EF76E0800F5500009D8A41DEF05F074
:100A36001FEF05F010EF05F02650245C246E256AA2
:100A460024BE2506120031EF05F025C0F6FF060E7E
:100A5600F76E0800F55082EC05F0252A25C0F6FF52
:100A6600060EF76E0800F5500009D8A43DEF05F014
:100A76003FEF05F028EF05F0120049EF05F0040EF0
:100A8600266E3E0EE82EFED7262EFCD72406D8A0CC
:100A96002506242806E12528D8A454EF05F056EFAC
:100AA60005F042EF05F01200246E24C08CFF8A92F6
:100AB600080EE82EFED700008A82080EE82EFED722
:100AC60000008A921200949C948E0F0EAF6EAC9426
:100AD600B896AC98AB8EAC8AAB889E9A9D8AF28CFF
:100AE600F28E120000EE01F0200EEE6AE806FDE13D
:100AF6002D902D92000EF86E00012BEF03F0246E60
:100B06009EA888EF05F08AEF05F083EF05F024C074
:100B1600ADFF120093929290929292949296929A2C
:060B260096908A92120075
:020000040030CA
:08000000FF02191EFF8381FFBE
:00000001FF
