:0400000007EF00F016
:0A0008001A8244ED03F09FEF03F0AD
:10060000005541525420496E6974204F4B0D0A0029
:1006100052656365697665643A200000030E176EC3
:10062000E80E166E72EC03F0AEEC03F0010E176EDE
:1006300089EC03F01250D8B420EF03F022EF03F05E
:100640001AEF03F0126A100E176E89EC03F0196AA4
:1006500032EF03F01950010FD96EDA6ADF50BDECAA
:1006600003F0192A1150195CD8A039EF03F03BEFC1
:1006700003F02AEF03F00D0E176E89EC03F0116AF8
:100680001AEF03F007EF00F00600D9CF13F0DACF2E
:1006900014F09EAA4EEF03F050EF03F06CEF03F05E
:1006A000AECF15F01250D8A458EF03F05AEF03F074
:1006B0006CEF03F01150010FD96EDA6A15C0DFFF3D
:1006C000112A0F0E116467EF03F069EF03F06CEF6E
:1006D00003F0010E126E116A14C0DAFF13C0D9FFC5
:1006E0001A9211007BEF03F0040E186E3E0EE82EF6
:1006F000FED7182EFCD71606D8A01706162806E136
:100700001728D8A486EF03F088EF03F074EF03F006
:10071000120092EF03F017C0F6FF0800F550BDEC91
:1007200003F0172A17C0F6FF0800F5500009D8A4F7
:100730009CEF03F09EEF03F08BEF03F0120000EE4E
:1007400001F0120EEE6AE806FDE11A901A92000E10
:10075000F86E060EF76E00010EEF03F0949C948E77
:100760000F0EAF6EAC94B896AC98AB8EAC8AAB88DB
:100770009E9A9D8AF28CF28E1200166E9EA8C3EF8E
:1007800003F0C5EF03F0BEEF03F016C0ADFF12009B
:020000040030CA
:08000000FF02191EFF8381FFBE
:00000001FF
