:0400000007EF00F016
:0A0008006882B8ED07F08BEF08F0F6
:10060000004552524F523A554E4B4E4F574E5F4354
:100610004D443A00434F4E4E5F41434B0D0A00524A
:10062000433A253032580D0A0053484F575F303057
:10063000300053484F575F3030310053484F575FB9
:100640003030320053484F575F3030330053484FFB
:10065000575F3030340053484F575F3030350053C8
:100660004554315F5243350053484F575F30303661
:1006700000524541445F50494E00434F4E4E5F5239
:1006800045510000010E056EF40E046E74EC08F086
:10069000BCEC08F0ADEC08F0000E52EC07F0FF0ED9
:1006A0009EEC08F04950D8B458EF03F05AEF03F02D
:1006B00052EF03F0496A5E0E096E7A0E0A6E7CEC08
:1006C00006F00009D8B467EF03F069EF03F073EFA9
:1006D00003F0140E056E0550D8A4060E066E89ECC4
:1006E00007F04BEF04F05E0E096E320E0A6E7CECE2
:1006F00006F00009D8B47FEF03F081EF03F086EF36
:1007000003F0010E52EC07F04BEF04F05E0E096EA1
:100710003B0E0A6E7CEC06F00009D8B492EF03F0B1
:1007200094EF03F099EF03F0020E52EC07F04BEF59
:1007300004F05E0E096E440E0A6E7CEC06F00009B1
:10074000D8B4A5EF03F0A7EF03F0ACEF03F0030E6E
:1007500052EC07F04BEF04F05E0E096E4D0E0A6E80
:100760007CEC06F00009D8B4B8EF03F0BAEF03F060
:10077000BFEF03F0040E52EC07F04BEF04F05E0EF7
:10078000096E560E0A6E7CEC06F00009D8B4CBEF69
:1007900003F0CDEF03F0D2EF03F0050E52EC07F0BB
:1007A0004BEF04F05E0E096E680E0A6E7CEC06F0EC
:1007B0000009D8B4DEEF03F0E0EF03F0E5EF03F05B
:1007C000060E52EC07F04BEF04F05E0E096E290E98
:1007D0000A6E7CEC06F00009D8B4F1EF03F0F3EFF9
:1007E00003F0F8EF03F0000E52EC07F04BEF04F0CB
:1007F0005E0E096E710E0A6E7CEC06F00009D8B42C
:1008000004EF04F006EF04F019EF04F0C6EC06F074
:10081000416E4A0E316E1F0E326E41C033F0346AA3
:100820005AEC08F04A0E056E066A89EC07F04BEFA9
:1008300004F05E0E096E5F0E0A6E7CEC06F0000995
:10084000D8B425EF04F027EF04F02AEF04F08B8AE8
:100850004BEF04F0010E056E0550D8A4060E066E8F
:1008600089EC07F0426A42505E0FD96EDA6ADF50B7
:10087000CBEC08F0422A090E426441EF04F043EF4A
:1008800004F033EF04F01C0E056E0550D8A4060EDC
:10089000066E89EC07F0486A52EF03F007EF00F0AC
:1008A0002550D96EDA6ADFCFF6FF060EF76E080024
:1008B000F550250AD8A45FEF04F061EF04F0EAEFE9
:1008C00004F02550D96EDA6ADF2A000E446E000E5D
:1008D000436E43C047F0456846682B6A8AEF04F0D0
:1008E00047822550D96EDA6ADF2A8AEF04F0010EBA
:1008F0002B6E8AEF04F02550D96EDA6ADFCFF6FF4F
:10090000060EF76E0800F550300AD8B470EF04F008
:1009100077EF04F02B50D8B490EF04F092EF04F08E
:100920007BEF04F025C004F026C005F02AEC06F0A9
:1009300004C043F005C044F044BEA3EF04F0A1EFAF
:1009400004F0A8EF04F04780436C441ED8B0442A5A
:100950002550D96EDA6ADF502C6E2CC0F6FF060ED9
:10096000F76E0800F550580AD8A4B9EF04F0BBEFB1
:1009700004F0E4EF04F02650D96EDA6A020EDF26A6
:10098000DF5CD96EDA6ADECF27F0DECF28F02550A3
:10099000D96EDA6A2C28DF6ED8EF04F024C018F084
:1009A00027C019F028C01AF0FCEC04F0FBEF04F0AB
:1009B0002CC0F6FF060EF76E0800F550580AD8B4A2
:1009C000CEEF04F0E4EF04F02550D96EDA6ADF2AA6
:1009D000FBEF04F02550D96EDA6ADFCFF6FF060E82
:1009E000F76E0800F550046E056A24C006F0D5ECD9
:1009F00005F0E4EF04F01200010E1E6E43C01FF07C
:100A000044C020F0000E236E1F0E226E00019F6B6B
:100A100038EF05F02206D8A0230619500F0B216EDF
:100A20000A0E216016EF05F018EF05F01CEF05F037
:100A3000300E21261EEF05F0370E21262250800FA2
:100A4000D96EDA6A21C0DFFF1E6A1F06D8A0200611
:100A500019C01BF01AC01CF0040E1D6ED8901C3279
:100A60001B321D2E2EEF05F01BC019F01CC01AF012
:100A700023BE44EF05F0235009E1020E225CD8A00A
:100A800044EF05F046EF05F06BEF05F019501A1032
:100A9000D8A44DEF05F04FEF05F00AEF05F01E501A
:100AA000D8A455EF05F057EF05F00AEF05F020BE8A
:100AB00062EF05F0205008E11F04D8A062EF05F0B6
:100AC00064EF05F06BEF05F047B269EF05F06BEFEF
:100AD00005F00AEF05F018C011F02250800F126ED9
:100AE0001FC013F020C014F00DEC07F01200060632
:100AF000D8A00706062806E10728D8A482EF05F04B
:100B000084EF05F08FEF05F0000E056E000E046E09
:100B1000D4EF05F0042A052A0606D8A007060450DB
:100B2000D96EDA6ADF50D8B498EF05F09AEF05F085
:100B3000C4EF05F005C0F6FF060EF76E0800F5508D
:100B40000009D8B4A6EF05F0A8EF05F0C4EF05F052
:100B500006500710D8B4AFEF05F0B1EF05F0C4EFC1
:100B600005F00450D96EDA6ADF50086E05C0F6FF52
:100B7000060EF76E0800F5500818D8B4C2EF05F05D
:100B8000C4EF05F08AEF05F00450D96EDA6ADF5041
:100B9000086E05C0F6FF060EF76E0800F550085CFB
:100BA000046E056AD8A0050612000650D8B4DBEF23
:100BB00005F0DDEF05F0E5EF05F00650D8A4E3EF12
:100BC00005F0E5EF05F0EAEF05F00450DCEC08F085
:100BD00029EF06F00650D96EDA6A090ED926DE50E2
:100BE000DE10D8B4F6EF05F0F8EF05F011EF06F0DF
:100BF0000650D96EDA6A090ED9260650E16EE26A0D
:100C0000020EE126DE50E65CE650800A0B6EDE50F6
:100C1000800A0B58D8B00FEF06F011EF06F029EF5D
:100C200006F00650D96EDA6A020ED926DF50076E3A
:100C30000650D96EDA6ADF500724D96EDA6A04C02A
:100C4000DFFF0650D96EDA6A020ED926DE2A000EC0
:100C5000DD221200000E0A6E000E096E0450D96EDD
:100C6000DA6ADFCFF6FF060EF76E0800F5502A0AA3
:100C7000D8A43DEF06F03FEF06F064EF06F0045015
:100C8000D96EDA6ADF2A0550D96EDA6A020EDF26DB
:100C9000DF5CD96EDA6ADECF09F0DECF0AF077EFDB
:100CA00006F00A0E0902F3CF06F0F4CF07F00A02AD
:100CB000F350072608500624096E000E07200A6E1E
:100CC0000450D96EDA6ADF2A0450D96EDA6ADFCFAF
:100CD000F6FF060EF76E0800F550D00F086E090EED
:100CE000086475EF06F077EF06F051EF06F009C0E3
:100CF00004F00AC005F012000A50D8B482EF06F0E2
:100D000084EF06F0C4EF06F00AC004F040EC08F0EF
:100D100004C00BF005C00CF0B1EF06F009C004F000
:100D20000AC005F00BC006F00CC007F077EC05F028
:100D300004500510D8A49FEF06F0A1EF06F0A4EF31
:100D400006F00950C5EF06F00928046E0AC0F6FF48
:100D5000060EF76E0800F550056E066A23EC08F0E3
:100D6000096E0950D8B4B7EF06F0B9EF06F0C4EF3A
:100D700006F00950D96EDA6ADF50D8A4C2EF06F047
:100D8000C4EF06F08EEF06F0000E1200056A82B086
:100D9000CCEF06F0CFEF06F0010ED0EF06F0000E1C
:100DA000051282B2D6EF06F0DAEF06F0046A042AE2
:100DB000DBEF06F0046AD8900434051282B4E3EF46
:100DC00006F0E7EF06F0046A042AE8EF06F0046A8A
:100DD000D8900436D8900434051282B6F2EF06F0AB
:100DE000F6EF06F0046A042AF7EF06F0046AD890DA
:100DF0000436D8900436D8900434051282B803EF34
:100E000007F007EF07F0046A042A08EF07F0046A06
:100E10000438F00B05120550120047A012EF07F03E
:100E200014EF07F01AEF07F012C00CF011C00DF02C
:100E300005EC08F014BE21EF07F01FEF07F025EFD7
:100E400007F0000E146E000E136E000E176E000EEB
:100E5000166E35EF07F0000E056E200E046E11C001
:100E600006F0D5EC05F0164A172A1350165C1750F9
:100E7000800A156E1450800A1558D8A042EF07F06A
:100E800044EF07F02BEF07F047B049EF07F04BEFC7
:100E900007F051EF07F012C00CF011C00DF005EC97
:100EA00008F01200046E8990899289948996899A33
:100EB0008D906DEF07F0898088EF07F0898288EFC9
:100EC00007F0898488EF07F0898688EF07F08D8026
:100ED00088EF07F0898A88EF07F00450010AD8B438
:100EE0006AEF07F0030AD8B467EF07F0010AD8B435
:100EF00064EF07F0070AD8B461EF07F0010AD8B42D
:100F00005EEF07F0030AD8B45BEF07F088EF07F055
:100F100012009FEF07F005C0F6FF06C0F7FFF86A62
:100F2000050EF76403D00800F55005D0F6CFE1FFB9
:100F3000F7CFE2FFE750CBEC08F0054A062A05C0E0
:100F4000F6FF06C0F7FFF86A050EF76403D0080045
:100F5000F55005D0F6CFE1FFF7CFE2FFE7500009EB
:100F6000D8A4B5EF07F0B7EF07F08BEF07F012004A
:100F70000600D9CF01F0DACF02F09EAAC2EF07F047
:100F8000C4EF07F0E0EF07F0AECF03F04950D8A46C
:100F9000CCEF07F0CEEF07F0E0EF07F048505E0F20
:100FA000D96EDA6A03C0DFFF482A090E4864DBEF16
:100FB00007F0DDEF07F0E0EF07F0010E496E486A39
:100FC00002C0DAFF01C0D9FF689211002EC030F0D4
:100FD000F2EF07F02DC024F0300E256E2FC026F062
:100FE00050EC04F030C0F6FF060EF76E0800F55026
:100FF0000009D8A4FEEF07F000EF08F0EAEF07F0D1
:10100000000E2E6E000E2D6E1200000E106E000EE1
:101010000F6E14EF08F00EC004F0056A0DC006F064
:10102000D5EC05F00F4A102A0C500F24D96EDA6A5D
:10103000DF500E6E0E50D8A420EF08F022EF08F01B
:101040000BEF08F012000450D96EDA6A0550DE1872
:10105000D8A42DEF08F02FEF08F032EF08F004507D
:101060003FEF08F0042A0404D96EDA6ADF50D8A4EE
:101070003CEF08F03EEF08F023EF08F0000E1200FE
:1010800004C006F045EF08F0042A04C0F6FF060E7F
:10109000F76E0800F5500009D8A451EF08F053EF9F
:1010A00008F044EF08F00650045C046E056A04BEC4
:1010B00005061200330E356E31C036F0000E396E63
:1010C000000E386E000E406E000E3F6E360E2D6E16
:1010D00032C02EF0350E2F6EE6EC07F0315038247A
:1010E000D96EDA6ADF6A12007DEF08F0040E066E30
:1010F0003E0EE82EFED7062EFCD70406D8A0050625
:10110000042806E10528D8A488EF08F08AEF08F043
:1011100076EF08F0120000EE80F0200EEE6AE8068E
:10112000FDE100EE43F0250EEE6AE806FDE1689071
:101130006892000EF86E000142EF03F0046E04C0E6
:101140008CFF8A92080EE82EFED700008A82080ED5
:10115000E82EFED700008A9212009392929092920B
:1011600092949296929A96908A92949A8B9A93904D
:101170008A90D6EC08F01200949C948E0F0EAF6EFD
:10118000AC94B896AC98AB8EAC8AAB889E9A9D8A8C
:10119000F28CF28E1200046E9EA8D1EF08F0D3EF0D
:1011A00008F0CCEF08F004C0ADFF120094809482E8
:0A11B00094849486948812001200C3
:020000040030CA
:08000000FF02191EFF8381FFBE
:00000001FF
