:0400000007EF00F016
:0A00080076821FED09F032EF0AF0D6
:10060000004552524F523A554E4B4E4F574E5F4354
:100610004D443A00434F4E4E5F41434B0D0A00524A
:10062000433A253032580D0A0052433A25303458A7
:100630000D0A0053484F575F3030300053484F5732
:100640005F3030310053484F575F303032005348ED
:100650004F575F3030330053484F575F30303400CE
:1006600053484F575F30303500534554305F524345
:100670003500534554315F5243350053484F575F5F
:1006800030303600524541445F50494E0053544F7C
:10069000505F50494E00434F4E4E5F52455100004F
:1006A000010E056EF40E046E04EC0AF055EC0AF02F
:1006B0001BEC0AF0000EB6EC08F0000E64EC0AF039
:1006C00090EC0AF0616A6B50D8B469EF03F06BEFFD
:1006D00003F09CEF04F06B6A6C0E096E960E0A6EC6
:1006E00027EC08F00009D8B478EF03F07AEF03F0B4
:1006F00084EF03F0140E056E0550D8A4060E066EA6
:10070000F0EC08F09BEF04F06C0E096E3C0E0A6EE4
:1007100027EC08F00009D8B490EF03F092EF03F053
:1007200097EF03F0010EB6EC08F09BEF04F06C0EAF
:10073000096E450E0A6E27EC08F00009D8B4A3EF45
:1007400003F0A5EF03F0AAEF03F0020EB6EC08F0F9
:100750009BEF04F06C0E096E4E0E0A6E27EC08F04B
:100760000009D8B4B6EF03F0B8EF03F0BDEF03F023
:10077000030EB6EC08F09BEF04F06C0E096E570EFA
:100780000A6E27EC08F00009D8B4C9EF03F0CBEFEC
:1007900003F0D0EF03F0040EB6EC08F09BEF04F08A
:1007A0006C0E096E600E0A6E27EC08F00009D8B4D2
:1007B000DCEF03F0DEEF03F0E3EF03F0050EB6EC41
:1007C00008F09BEF04F06C0E096E7B0E0A6E27ECAE
:1007D00008F00009D8B4EFEF03F0F1EF03F0F6EF03
:1007E00003F0060EB6EC08F09BEF04F06C0E096EF9
:1007F000330E0A6E27EC08F00009D8B402EF04F0BB
:1008000004EF04F009EF04F0000EB6EC08F09BEFE3
:1008100004F06C0E096E840E0A6E27EC08F00009D5
:10082000D8B415EF04F017EF04F01BEF04F0010E3D
:10083000616E9BEF04F06C0E096E8D0E0A6E27EC54
:1008400008F00009D8B427EF04F029EF04F034EFE2
:1008500004F090EC0AF0616A8990899289948996F3
:100860008D90899A9BEF04F06C0E096E720E0A6EE1
:1008700027EC08F00009D8B440EF04F042EF04F090
:1008800057EF04F08A908B9A4D0E316E1F0E326E28
:1008900045EC0AF04C6E4C50336E346AEAEC09F0C9
:1008A0004D0E056E066AF0EC08F09BEF04F06C0E3E
:1008B000096E690E0A6E27EC08F00009D8B463EFE0
:1008C00004F065EF04F07AEF04F08A908B8A570EFB
:1008D000316E1F0E326E45EC0AF04C6E4C50336E8A
:1008E000346AEAEC09F0570E056E066AF0EC08F07F
:1008F0009BEF04F0010E056E0550D8A4060E066E9F
:10090000F0EC08F0626A62506C0FD96EDA6ADF5060
:100910007FEC0AF0622A090E626491EF04F093EF13
:1009200004F083EF04F01C0E056E0550D8A4060EEB
:10093000066EF0EC08F06A6A6150D8B4A2EF04F0D9
:10094000A4EF04F0A8EF04F0AEEC04F063EF03F0C2
:1009500090EC0AF063EF03F007EF00F0000E64EC98
:100960000AF0000E056E140E046E04EC0AF0898085
:100970008992899489968D90899A4DEC09F04B6EF5
:10098000060E4B18D8B4C7EF04F0C9EF04F0DAEF45
:1009900004F0050E4B18D8A4D0EF04F0D2EF04F009
:1009A000E5EF04F0DAEF04F06980E5EF04F0688029
:1009B000E5EF04F04B50050AD8B4D7EF04F0030A72
:1009C000D8B4D4EF04F0E5EF04F0000E056E140E79
:1009D000046E04EC0AF089908982899489968D903E
:1009E000899A4DEC09F04B6E060E4B18D8B4FBEF0C
:1009F00004F0FDEF04F00EEF05F0050E4B18D8A43F
:100A000004EF05F006EF05F019EF05F00EEF05F025
:100A1000698219EF05F0688219EF05F04B50050A5D
:100A2000D8B40BEF05F0030AD8B408EF05F019EFBE
:100A300005F0000E056E140E046E04EC0AF08990A9
:100A40008992898489968D90899A4DEC09F04B6E34
:100A5000060E4B18D8B42FEF05F031EF05F042EF3A
:100A600005F0050E4B18D8A438EF05F03AEF05F065
:100A70004DEF05F042EF05F069844DEF05F0688415
:100A80004DEF05F04B50050AD8B43FEF05F0030ACF
:100A9000D8B43CEF05F04DEF05F0000E056E140ED6
:100AA000046E04EC0AF089908992899489868D906D
:100AB000899A4DEC09F04B6E060E4B18D8B463EFD3
:100AC00005F065EF05F076EF05F0050E4B18D8A49C
:100AD0006CEF05F06EEF05F081EF05F076EF05F0B5
:100AE000698681EF05F0688681EF05F04B50050AB5
:100AF000D8B473EF05F0030AD8B470EF05F081EFB6
:100B000005F0000E056E140E046E04EC0AF08990D8
:100B10008992899489968D80899A4DEC09F04B6E63
:100B2000060E4B18D8B497EF05F099EF05F0AAEF31
:100B300005F0050E4B18D8A4A0EF05F0A2EF05F0C4
:100B4000B5EF05F0AAEF05F06988B5EF05F0688804
:100B5000B5EF05F04B50050AD8B4A7EF05F0030A2E
:100B6000D8B4A4EF05F0B5EF05F0000E056E140E35
:100B7000046E04EC0AF089908992899489968D908C
:100B8000898A4DEC09F04B6E060E4B18D8B4CBEFAA
:100B900005F0CDEF05F0DEEF05F0050E4B18D8A4FB
:100BA000D4EF05F0D6EF05F0E9EF05F0DEEF05F044
:100BB000698AE9EF05F0688AE9EF05F04B50050A0C
:100BC000D8B4DBEF05F0030AD8B4D8EF05F0E9EFAD
:100BD00005F0410E316E290E326E73EC0AF004C03E
:100BE00033F005C034F0EAEC09F0410E056E066AF8
:100BF000F0EC08F012002550D96EDA6ADFCFF6FF6C
:100C0000060EF76E0800F550250AD8A40AEF06F084
:100C10000CEF06F095EF06F02550D96EDA6ADF2A60
:100C2000000E646E000E636E63C067F065686668F0
:100C30002B6A35EF06F067822550D96EDA6ADF2A13
:100C400035EF06F0010E2B6E35EF06F02550D96E0C
:100C5000DA6ADFCFF6FF060EF76E0800F550300AAD
:100C6000D8B41BEF06F022EF06F02B50D8B43BEFC0
:100C700006F03DEF06F026EF06F025C004F026C092
:100C800005F0D5EC07F004C063F005C064F064BE65
:100C90004EEF06F04CEF06F053EF06F06780636C02
:100CA000641ED8B0642A2550D96EDA6ADF502C6EE3
:100CB0002CC0F6FF060EF76E0800F550580AD8A4AF
:100CC00064EF06F066EF06F08FEF06F02650D96E5F
:100CD000DA6A020EDF26DF5CD96EDA6ADECF27F031
:100CE000DECF28F02550D96EDA6A2C28DF6E83EF2C
:100CF00006F024C018F027C019F028C01AF0A7EC9D
:100D000006F0A6EF06F02CC0F6FF060EF76E080000
:100D1000F550580AD8B479EF06F08FEF06F0255059
:100D2000D96EDA6ADF2AA6EF06F02550D96EDA6AA4
:100D3000DFCFF6FF060EF76E0800F550046E056A69
:100D400024C006F080EC07F08FEF06F01200010ED1
:100D50001E6E63C01FF064C020F0000E236E1F0ED5
:100D6000226E0001C56BE3EF06F02206D8A0230631
:100D700019500F0B216E0A0E2160C1EF06F0C3EF70
:100D800006F0C7EF06F0300E2126C9EF06F0370E49
:100D900021262250A60FD96EDA6A21C0DFFF1E6A13
:100DA0001F06D8A0200619C01BF01AC01CF0040EA4
:100DB0001D6ED8901C321B321D2ED9EF06F01BC0C1
:100DC00019F01CC01AF023BEEFEF06F0235009E122
:100DD000020E225CD8A0EFEF06F0F1EF06F016EF5E
:100DE00007F019501A10D8A4F8EF06F0FAEF06F041
:100DF000B5EF06F01E50D8A400EF07F002EF07F0A1
:100E0000B5EF06F020BE0DEF07F0205008E11F04FB
:100E1000D8A00DEF07F00FEF07F016EF07F067B25D
:100E200014EF07F016EF07F0B5EF06F018C011F059
:100E30002250A60F126E1FC013F020C014F071ECE8
:100E400008F012000606D8A00706062806E10728C3
:100E5000D8A42DEF07F02FEF07F03AEF07F0000EC0
:100E6000056E000E046E7FEF07F0042A052A0606C1
:100E7000D8A007060450D96EDA6ADF50D8B443EF21
:100E800007F045EF07F06FEF07F005C0F6FF060E1D
:100E9000F76E0800F5500009D8B451EF07F053EF92
:100EA00007F06FEF07F006500710D8B45AEF07F0BD
:100EB0005CEF07F06FEF07F00450D96EDA6ADF508D
:100EC000086E05C0F6FF060EF76E0800F55008180C
:100ED000D8B46DEF07F06FEF07F035EF07F004506F
:100EE000D96EDA6ADF50086E05C0F6FF060EF76E9F
:100EF0000800F550085C046E056AD8A005061200CB
:100F00000650D8B486EF07F088EF07F090EF07F0AF
:100F10000650D8A48EEF07F090EF07F095EF07F09A
:100F2000045093EC0AF0D4EF07F00650D96EDA6A59
:100F3000090ED926DE50DE10D8B4A1EF07F0A3EFDA
:100F400007F0BCEF07F00650D96EDA6A090ED92611
:100F50000650E16EE26A020EE126DE50E65CE650E3
:100F6000800A0B6EDE50800A0B58D8B0BAEF07F03B
:100F7000BCEF07F0D4EF07F00650D96EDA6A020E24
:100F8000D926DF50076E0650D96EDA6ADF50072483
:100F9000D96EDA6A04C0DFFF0650D96EDA6A020E33
:100FA000D926DE2A000EDD221200000E0A6E000E87
:100FB000096E0450D96EDA6ADFCFF6FF060EF76EBF
:100FC0000800F5502A0AD8A4E8EF07F0EAEF07F086
:100FD0000FEF08F00450D96EDA6ADF2A0550D96E97
:100FE000DA6A020EDF26DF5CD96EDA6ADECF09F03C
:100FF000DECF0AF022EF08F00A0E0902F3CF06F066
:10100000F4CF07F00A02F350072608500624096EB1
:10101000000E07200A6E0450D96EDA6ADF2A0450E7
:10102000D96EDA6ADFCFF6FF060EF76E0800F550CC
:10103000D00F086E090E086420EF08F022EF08F0C8
:10104000FCEF07F009C004F00AC005F012000A50D6
:10105000D8B42DEF08F02FEF08F06FEF08F00AC0BA
:1010600004F0D0EC09F004C00BF005C00CF05CEF0C
:1010700008F009C004F00AC005F00BC006F00CC06F
:1010800007F022EC07F004500510D8A44AEF08F04E
:101090004CEF08F04FEF08F0095070EF08F0092806
:1010A000046E0AC0F6FF060EF76E0800F550056ED6
:1010B000066AB3EC09F0096E0950D8B462EF08F083
:1010C00064EF08F06FEF08F00950D96EDA6ADF506C
:1010D000D8A46DEF08F06FEF08F039EF08F0000EBC
:1010E000120067A076EF08F078EF08F07EEF08F0C6
:1010F00012C00CF011C00DF095EC09F014BE85EF94
:1011000008F083EF08F089EF08F0000E146E000E6F
:10111000136E000E176E000E166E99EF08F0000E9B
:10112000056E200E046E11C006F080EC07F0164A22
:10113000172A1350165C1750800A156E1450800A37
:101140001558D8A0A6EF08F0A8EF08F08FEF08F028
:1011500067B0ADEF08F0AFEF08F0B5EF08F012C0E0
:101160000CF011C00DF095EC09F01200056E89909D
:10117000899289948996899A8D90FF0E64EC0AF081
:10118000D4EF08F08980EFEF08F08982EFEF08F0E4
:101190008984EFEF08F08986EFEF08F08D80EFEF9C
:1011A00008F0898AEFEF08F00550010AD8B4D1EFB2
:1011B00008F0030AD8B4CEEF08F0010AD8B4CBEF98
:1011C00008F0070AD8B4C8EF08F0010AD8B4C5EF90
:1011D00008F0030AD8B4C2EF08F0EFEF08F01200ED
:1011E00006EF09F005C0F6FF06C0F7FFF86A050E26
:1011F000F76403D00800F55005D0F6CFE1FFF7CF34
:10120000E2FFE7507FEC0AF0054A062A05C0F6FF28
:1012100006C0F7FFF86A050EF76403D00800F55022
:1012200005D0F6CFE1FFF7CFE2FFE7500009D8A4E1
:101230001CEF09F01EEF09F0F2EF08F012000600B3
:10124000D9CF01F0DACF02F09EAA29EF09F02BEFF7
:1012500009F047EF09F0AECF03F06B50D8A433EF9D
:1012600009F035EF09F047EF09F06A506C0FD96EBD
:10127000DA6A03C0DFFF6A2A090E6A6442EF09F0E6
:1012800044EF09F047EF09F0010E6B6E6A6A02C085
:10129000DAFF01C0D9FF76921100056A82B053EFE0
:1012A00009F056EF09F0010E57EF09F0000E051294
:1012B00082B25DEF09F061EF09F0046A042A62EF7F
:1012C00009F0046AD8900434051282B46AEF09F078
:1012D0006EEF09F0046A042A6FEF09F0046AD890EF
:1012E0000436D89004340512055012002EC030F098
:1012F00082EF09F02DC024F0300E256E2FC026F0AD
:10130000FBEC05F030C0F6FF060EF76E0800F55056
:101310000009D8A48EEF09F090EF09F07AEF09F0F8
:10132000000E2E6E000E2D6E1200000E106E000EBE
:101330000F6EA4EF09F00EC004F0056A0DC006F0B0
:1013400080EC07F00F4A102A0C500F24D96EDA6A8D
:10135000DF500E6E0E50D8A4B0EF09F0B2EF09F0D6
:101360009BEF09F012000450D96EDA6A0550DE18BE
:10137000D8A4BDEF09F0BFEF09F0C2EF09F00450A7
:10138000CFEF09F0042A0404D96EDA6ADF50D8A43A
:10139000CCEF09F0CEEF09F0B3EF09F0000E120028
:1013A00004C006F0D5EF09F0042A04C0F6FF060ECB
:1013B000F76E0800F5500009D8A4E1EF09F0E3EF5B
:1013C00009F0D4EF09F00650045C046E056A04BE0F
:1013D00005061200330E356E31C036F0000E396E40
:1013E000000E386E000E406E000E3F6E360E2D6EF3
:1013F00032C02EF0350E2F6E76EC09F031503824C5
:10140000D96EDA6ADF6A12000DEF0AF0040E066E7A
:101410003E0EE82EFED7062EFCD70406D8A0050601
:10142000042806E10528D8A418EF0AF01AEF0AF0FC
:1014300006EF0AF0120093929290929292949296F2
:10144000929A96908A92949A8B9A93908A80959089
:101450009592959495969598959A959C959E8AECDB
:101460000AF0120000EE80F0460EEE6AE806FDE19A
:1014700000EE63F0130EEE6AE806FDE176907692D8
:10148000000EF86E000150EF03F0066A000E82B6FF
:10149000010E046E000E82B8010E056E0450061295
:1014A00005500524061206501200949C948E0F0ECF
:1014B000AF6EAC94B896AC98AB8EAC8AAB889E9A63
:1014C0009D8AF28CF28E1200046E04C08CFF8A9208
:1014D000080EE82EFED700008A82080EE82EFED7FE
:1014E00000008A921200685069C006F0076A06C0C0
:1014F00007F0066A0610046E0750056E1200046EAF
:101500009EA885EF0AF087EF0AF080EF0AF004C08A
:10151000ADFF120094809482948494869488120083
:08152000696A686A12001200FA
:020000040030CA
:08000000FF02191EFF8381FFBE
:00000001FF
